:100000000A128A11B429FF1B0D2883137F18831746
:100010000008840A0319FF0A080000308A00040857
:10002000840A82070034413454342B3443344D3431
:10003000473453343D3422342B3439343134393459
:100040003334363433343234303430343434363478
:10005000353422340D340A3400344C3469346E346F
:1000600065342034533474346F34703470346534F0
:10007000643420342034203400344C3469346E34F9
:1000800065342034523475346E346E3469346E34D1
:100090006734203420342034003449346E346934D9
:1000A0007434693461346C3469347A3469346E344C
:1000B00067342E342E342E3400344C3469346E348C
:1000C000653420344D346F346E34693474346F3495
:1000D000723469346E34673400344C3469346E34AD
:1000E00065342034523475346E346E3469346E3471
:1000F00067340D340A34003453347934733474342F
:1001000065346D3420345234653461346434793468
:100110000034413454342B3443344D344734463462
:100120003D3431340D340A340034203473346534B2
:100130006334203420340034543469346D346534ED
:100140003A3420340034413454340D340A34003409
:1002DC000234F0007129831203130C1E762977293E
:1002EC00712978297008990008007E088A007F0817
:1002FC0082007B210A128A118000840A04087D0680
:10030C0003190034FF0A0319FE0A7F29831603130D
:10031C00071387173330990018151812831203131B
:10032C0098178316031398168312031318160800D4
:10033C004C3469346E3465342034533474346F3433
:10034C0070347034653464343A34203400342034DE
:10035C007334653463340D340A340034C501C6017A
:10036C0083160313EC01ED01EE010A128A116E21C2
:10037C000A128A11EF0083133630FD000130FE00A3
:10038C009E30FF00203084000A128A117F210A124D
:10039C008A1183010A128A11BB2EF400E629740813
:1003AC0084000A128A110D200A128A110A128A116B
:1003BC002D240A128A110130F3007308F407E62980
:1003CC00740884000A128A110D200A128A1100384E
:1003DC00031DF129F229D529F329080083160313EB
:1003EC00880133300A128A11B7230A128A1132306B
:1003FC000A128A11B7230A128A1128300A128A119A
:10040C00B7230A128A110C300A128A11B7230A1266
:10041C008A1106300A128A11B7230A128A11803007
:10042C000A128A11B7230A128A110800342A720898
:10043C0083120313FF00710884000A128A1103202F
:10044C000A128A110A128A116F210A128A110130BA
:10045C00F1070318F20A0030F207342A72088312EB
:10046C000313FF00710884000A128A1103200A1278
:10047C008A110038031D432A442A1D2A452A0800E4
:10048C007108700403194B2A4C2A822AF5010314B3
:10049C00F50D5C2A01300310F00DF10DFF3E031D2C
:1004AC00512A0130F4007408F5075C2AF11F5F2A09
:1004BC00602A502A622A622A71087302031D682A74
:1004CC0070087202031C6B2A6C2A732A7008F202E1
:1004DC007108031CF303F302732A01300310F10CAF
:1004EC00F00CFF3E031D742A0130F502031D7F2A18
:1004FC00802A622A822A822A7308F101F107720883
:10050C00F001F007892A08000030F5000030F600F1
:10051C00710870040319932A942AD22AF701031440
:10052C00F70DA42A01300310F00DF10DFF3E031D51
:10053C00992A0130F4007408F707A42AF11FA72A9E
:10054C00A82A982AAA2AAA2A01300310F50DF60D1A
:10055C00FF3E031DAB2A71087302031DB72A7008F6
:10056C007202031CBA2ABB2AC32A7008F202710851
:10057C00031CF303F3027514C32A01300310F10CAE
:10058C00F00CFF3E031DC42A0130F702031DCF2AD5
:10059C00D02AAA2AD22AD22A7608F101F1077508A4
:1005AC00F001F007D92A08000230F7000330F600FA
:1005BC00BA30F500F50BE02AF60BE02AF70BE02A2F
:1005CC009130F1008030F2000A128A111C220A12BA
:1005DC008A110230F7000330F600BA30F500F50B43
:1005EC00F52AF60BF52AF70BF52A7730F100803057
:1005FC00F2000A128A111C220A128A110230F70028
:10060C000330F600BA30F500F50B0A2BF60B0A2B6B
:10061C00F70B0A2B0130F1008030F2000A128A111C
:10062C001C220A128A110230F7000330F600BA308D
:10063C00F500F50B1F2BF60B1F2BF70B1F2B74085C
:10064C00F201F2077308F101F1070A128A111C2258
:10065C000A128A111A300A128A116F210A128A118F
:10066C000630F7000E30F600B030F500F50B3C2BE1
:10067C00F60B3C2BF70B3C2B0800003083120313BA
:10068C00BC000030BD0079087804031D4E2B4F2BA5
:10069C008E2B30300A128A112D240A128A11B62B95
:1006AC00B62B8E2B0A30F0000030F1007908F301E4
:1006BC00F3077808F201F2070A128A1146220A128D
:1006CC008A117008303EFA00831203133C08363E40
:1006DC0084007A08831380000130BC070318BD0A1C
:1006EC000030BD070A30F0000030F1007908F3014A
:1006FC00F3077808F201F2070A128A118A220A1209
:10070C008A117108F901F9077008F801F8078E2BA6
:10071C0079087804031D932B942B582BA32BA32B14
:10072C00831203133C08363E8400831300080A121C
:10073C008A112D240A128A11A32BFF308312031362
:10074C00BC070318BD0AFF30BD07FF303D06031D73
:10075C00B12BFF303C06031DB42BB52B962BB62BBF
:10076C000800F200F0307205F00083120313080841
:10077C000F39700488000610861006150030C5006D
:10078C000030C6004608803AFF0081307F02031D0E
:10079C00D12BF4304502031CD42BD52BD72BEC2BAF
:1007AC00EC2B013083120313C5070318C60A003063
:1007BC00C6074608803AFF0081307F02031DE82BF4
:1007CC00F4304502031CEB2BEC2BD72B83120313B9
:1007DC0006117208F00004300310F00DFF3E031DEB
:1007EC00F22BF0307005F10008080F397104880005
:1007FC000610861006150030C5000030C6004608ED
:10080C00803AFF0081307F02031D0E2CF43045022C
:10081C00031C112C122C142C292C292C0130831282
:10082C000313C5070318C60A0030C6074608803AEA
:10083C00FF0081307F02031D252CF4304502031C80
:10084C00282C292C142C8312031306110800F200F7
:10085C00F0307205F0008312031308080F3970048E
:10086C0088000614861006150030C5000030C6003E
:10087C004608803AFF0081307F02031D472CF4307C
:10088C004502031C4A2C4B2C4D2C622C622C013043
:10089C0083120313C5070318C60A0030C60746089F
:1008AC00803AFF0081307F02031D5E2CF43045023C
:1008BC00031C612C622C4D2C83120313061172083D
:1008CC00F00004300310F00DFF3E031D682CF030D7
:1008DC007005F10008080F397104880006148610A1
:1008EC0006150030C5000030C6004608803AFF00EF
:1008FC0081307F02031D842CF4304502031C872CAD
:10090C00882C8A2C9F2C9F2C013083120313C50733
:10091C000318C60A0030C6074608803AFF0081302B
:10092C007F02031D9B2CF4304502031C9E2C9F2C34
:10093C008A2C8312031306110800031000300318CD
:10094C000130F600F11FAB2CAC2CB52CF009F109E1
:10095C00F00A0319F10AF6010314F60DB52CF31F76
:10096C00B82CB92CC22CF209F309F20A0319F30AB8
:10097C000130F4007408F6060030F7000030F8007F
:10098C00710870040319CB2CCC2C0A2DF50103141F
:10099C00F50DDC2C01300310F00DF10DFF3E031DA5
:1009AC00D12C0130F4007408F507DC2CF11FDF2C7E
:1009BC00E02CD02CE22CE22C01300310F70DF80DBA
:1009CC00FF3E031DE32C71087302031DEF2C70080E
:1009DC007202031CF22CF32CFB2C7008F20271082F
:1009EC00031CF303F3027714FB2C01300310F10CFE
:1009FC00F00CFF3E031DFC2C0130F502031D072DEE
:100A0C00082DE22C0A2D0A2D7608031D0E2D142D0F
:100A1C00F709F809F70A0319F80A142D7808F101F7
:100A2C00F1077708F001F0071B2D08000030831246
:100A3C000313BA000030BB007A087904031D272D7C
:100A4C00282D722D3030B6007B08840036088313B5
:100A5C00800003107B08013E840000300318013035
:100A6C008000DF2DDF2D722D0A30F0000030F100F8
:100A7C007A08F301F3077908F201F2070A128A11D6
:100A8C0046220A128A117008303E83120313B600F4
:100A9C003A087B07B70037088400360883138000B8
:100AAC000130BA070318BB0A0030BB070A30F0004C
:100ABC000030F1007A08F301F3077908F201F2072C
:100ACC000A128A118A220A128A117108FA01FA078B
:100ADC007008F901F907722D7A087904031D772D36
:100AEC00782D3A2D792D003083120313BC00003081
:100AFC00BD00B22D831203133C087B07B6003608E9
:100B0C00840083130008B7003708B9003C08013E85
:100B1C00FF3A013E3A077B07B6003608840000080E
:100B2C00B7003C087B07B800380884003708800001
:100B3C003908B6003C08013EFF3A013E3A077B07F4
:100B4C00B70037088400360880000130BC07031852
:100B5C00BD0A0030BD07B22D0230F0000030F100AC
:100B6C003B08F301F3073A08F201F2070A128A1163
:100B7C00A3240A128A11831203133D08803AB6008B
:100B8C007108803A3602031DCD2D70083C02031CFF
:100B9C00D02DD12D802DD22D0310831203133A08A2
:100BAC007B07B6003608840000300318013083132D
:100BBC00800008007D08FA01FA077C08F901F907A2
:100BCC00DE3083120313BE003E08FB000A128A11AA
:100BDC001C250A128A11003083160313EA00003018
:100BEC00EB00C8308400203083120313BE000408CD
:100BFC00BF000F30C0003E08840083130008C10002
:100C0C00BE0A3F08840041088000BF0AC00B012EB9
:100C1C00D73084002F30BE000408BF000730C0005E
:100C2C003E08840083130008C100BE0A3F088400FC
:100C3C0041088000BF0AC00B162E00308316031328
:100C4C00E4000030E500482E6408C83E840000082B
:100C5C0083120313BE00831603136A08A03E84009C
:100C6C00831203133E088000013083160313EA0736
:100C7C000318EB0A0030EB070130E4070318E50A10
:100C8C000030E5076408C83E84008008031D4F2E21
:100C9C00502E2A2E512E0030E6000030E700742E24
:100CAC006608DE3E8400000883120313BE00831620
:100CBC0003136A08A03E8400831203133E088000CD
:100CCC00013083160313EA070318EB0A0030EB0715
:100CDC000130E6070318E70A0030E7076608DE3E36
:100CEC0084008008031D7B2E7C2E562E7D2E00301A
:100CFC00E8000030E900A02E6808D73E8400000808
:100D0C0083120313BE00831603136A08A03E8400EB
:100D1C00831203133E088000013083160313EA0785
:100D2C000318EB0A0030EB070130E8070318E90A57
:100D3C000030E9076808D73E84008008031DA72E01
:100D4C00A82E822EA92E03106A08A03E8400003023
:100D5C00031801308000A030F3000030F4000A12B8
:100D6C008A11DA220A128A110800FF308316031343
:100D7C008500FF308312031385008316031386014D
:100D8C0083120313860186120630831603139F0009
:100D9C000A128A11F4210A128A114B300A128A1192
:100DAC00D3210A128A11C0300A128A11B7230A12EF
:100DBC008A113B300A128A11D3210A128A1110307F
:100DCC0083120313C4002A30C3001630C200C20BB6
:100DDC00ED2EC30BED2EC40BED2EF42E0A128A1140
:100DEC008C210A128A1101300A128A11B7230A12B5
:100DFC008A11343083120313C300F130C200C20BCA
:100E0C00052FC30B052F0A2F6A300A128A11D32122
:100E1C000A128A110B3083120313C4001C30C30056
:100E2C006330C200C20B182FC30B182FC40B182F22
:100E3C00640001300A128A11B7230A128A114B304E
:100E4C000A128A11D3210A128A110B30831203134E
:100E5C00C4001C30C3006330C200C20B332FC30B61
:100E6C00332FC40B332F64003B2F8312031305184D
:100E7C00402F412FA02F831603136F08013A03193B
:100E8C00482F492F542FEF010314EF0DEE010314DB
:100E9C00EE0D0030EC000030ED00542F80300A12C3
:100EAC008A11B7230A128A112B300A128A11D32104
:100EBC000A128A11C0300A128A11B7230A128A1137
:100ECC008A300A128A11D3210A128A11831603134B
:100EDC006D08F901F9076C08F801F8070A128A1174
:100EEC0043230A128A1183300A128A11D3210A125F
:100EFC008A11831203138612013083160313EC0735
:100F0C000318ED0A0030ED076E08031D8E2FEC2F31
:100F1C005B30F3008030F4000A128A11DA220A12D4
:100F2C008A11031000300318013083160313EE00EE
:100F3C00EC2FEC2F80300A128A11B7230A128A1177
:100F4C001B300A128A11D3210A128A11C0300A12DC
:100F5C008A11B7230A128A118A300A128A11D321F4
:100F6C000A128A11831603136D08F901F9076C082C
:100F7C00F801F8070A128A1143230A128A118330E6
:100F8C000A128A11D3210A128A11831203138616AC
:100F9C00831603136F08031DD42FEC2F031000309E
:100FAC0003180130EF006D08FD01FD076C08FC0112
:100FBC00FC070A128A11E0250A128A1100308316E6
:100FCC000313EC000030ED00EC2FEC2F0B308312F0
:100FDC000313C4001C30C3006330C200C20BF42FD7
:100FEC00C30BF42FC40BF42F64003B2F3B2F0A12BE
:040FFC008A1100282E
:00000001FF
